:020000001628C0
:0E0006008312031321088A00200882000800DC
:1000140003208A110A128000840AA00A0319A10A83
:08002400F003031D0A28080087
:10002C008316031788018901860103138701880150
:10003C0089018312860187014030880089010330D1
:10004C00FB008A30FC005530FD00FD0B2B28FC0B0F
:10005C002B28FB0B2B280000000086018701C630E3
:10006C00880089010330FB008A30FC005530FD000C
:10007C00FD0B3E28FC0B3E28FB0B3E28000000002D
:10008C0086011C308700CA3088000130890003309B
:10009C00FB008A30FC005530FD00FD0B5328FC0B97
:0E00AC005328FB0B5328000000001F285C287F
:04400E00D2230007B2
:00000001FF
